{
  "contractName": "RockPaperScissors",
  "abi": [
    {
      "constant": true,
      "inputs": [
        {
          "internalType": "int256",
          "name": "playerNumber",
          "type": "int256"
        }
      ],
      "name": "hasLocked",
      "outputs": [
        {
          "internalType": "bool",
          "name": "",
          "type": "bool"
        }
      ],
      "payable": false,
      "stateMutability": "view",
      "type": "function"
    },
    {
      "constant": true,
      "inputs": [
        {
          "internalType": "int256",
          "name": "playerNumber",
          "type": "int256"
        }
      ],
      "name": "hasRevealed",
      "outputs": [
        {
          "internalType": "bool",
          "name": "",
          "type": "bool"
        }
      ],
      "payable": false,
      "stateMutability": "view",
      "type": "function"
    },
    {
      "constant": true,
      "inputs": [
        {
          "internalType": "int256",
          "name": "playerNumber",
          "type": "int256"
        }
      ],
      "name": "getAddress",
      "outputs": [
        {
          "internalType": "address",
          "name": "",
          "type": "address"
        }
      ],
      "payable": false,
      "stateMutability": "view",
      "type": "function"
    },
    {
      "constant": true,
      "inputs": [
        {
          "internalType": "int256",
          "name": "playerNumber",
          "type": "int256"
        }
      ],
      "name": "getRevealed",
      "outputs": [
        {
          "internalType": "string",
          "name": "",
          "type": "string"
        }
      ],
      "payable": false,
      "stateMutability": "view",
      "type": "function"
    },
    {
      "constant": true,
      "inputs": [
        {
          "internalType": "int256",
          "name": "playerNumber",
          "type": "int256"
        }
      ],
      "name": "getHash",
      "outputs": [
        {
          "internalType": "bytes32",
          "name": "",
          "type": "bytes32"
        }
      ],
      "payable": false,
      "stateMutability": "view",
      "type": "function"
    },
    {
      "constant": true,
      "inputs": [],
      "name": "getWinner",
      "outputs": [
        {
          "internalType": "int256",
          "name": "",
          "type": "int256"
        }
      ],
      "payable": false,
      "stateMutability": "view",
      "type": "function"
    },
    {
      "constant": false,
      "inputs": [],
      "name": "resetVariables",
      "outputs": [],
      "payable": false,
      "stateMutability": "nonpayable",
      "type": "function"
    },
    {
      "constant": false,
      "inputs": [
        {
          "internalType": "int256",
          "name": "playerNumber",
          "type": "int256"
        }
      ],
      "name": "registerPlayer",
      "outputs": [],
      "payable": true,
      "stateMutability": "payable",
      "type": "function"
    },
    {
      "constant": false,
      "inputs": [
        {
          "internalType": "int256",
          "name": "playerNumber",
          "type": "int256"
        },
        {
          "internalType": "string",
          "name": "shape",
          "type": "string"
        },
        {
          "internalType": "string",
          "name": "randomStringToHash",
          "type": "string"
        }
      ],
      "name": "lockShape",
      "outputs": [],
      "payable": false,
      "stateMutability": "nonpayable",
      "type": "function"
    },
    {
      "constant": false,
      "inputs": [
        {
          "internalType": "int256",
          "name": "playerNumber",
          "type": "int256"
        },
        {
          "internalType": "string",
          "name": "shape",
          "type": "string"
        },
        {
          "internalType": "string",
          "name": "randomStringToHash",
          "type": "string"
        }
      ],
      "name": "revealShape",
      "outputs": [],
      "payable": false,
      "stateMutability": "nonpayable",
      "type": "function"
    },
    {
      "constant": true,
      "inputs": [
        {
          "internalType": "string",
          "name": "revealedP1",
          "type": "string"
        },
        {
          "internalType": "string",
          "name": "revealedP2",
          "type": "string"
        }
      ],
      "name": "computeWinner",
      "outputs": [
        {
          "internalType": "int256",
          "name": "",
          "type": "int256"
        }
      ],
      "payable": false,
      "stateMutability": "pure",
      "type": "function"
    },
    {
      "constant": false,
      "inputs": [],
      "name": "distributeRewards",
      "outputs": [],
      "payable": true,
      "stateMutability": "payable",
      "type": "function"
    },
    {
      "constant": true,
      "inputs": [
        {
          "internalType": "string",
          "name": "stringA",
          "type": "string"
        },
        {
          "internalType": "string",
          "name": "stringB",
          "type": "string"
        }
      ],
      "name": "stringsEqual",
      "outputs": [
        {
          "internalType": "bool",
          "name": "",
          "type": "bool"
        }
      ],
      "payable": false,
      "stateMutability": "pure",
      "type": "function"
    }
  ],
  "bytecode": "0x608060405234801561001057600080fd5b506122bc806100206000396000f3fe6080604052600436106100c25760003560e01c80636d0755861161007f5780638e7ea5b2116100595780638e7ea5b2146106b55780639c839874146106e0578063af88323f14610853578063f9c40920146108a6576100c2565b80636d075586146104ef5780636f4a2cd0146105425780637381f8dd1461054c576100c2565b8063083be753146100c757806312c12c2f1461023057806313d199501461025e57806322327e73146103d55780633fbc980114610489578063595cb289146104a0575b600080fd5b3480156100d357600080fd5b5061022e600480360360608110156100ea57600080fd5b81019080803590602001909291908035906020019064010000000081111561011157600080fd5b82018360208201111561012357600080fd5b8035906020019184600183028401116401000000008311171561014557600080fd5b91908080601f016020809104026020016040519081016040528093929190818152602001838380828437600081840152601f19601f820116905080830192505050505050509192919290803590602001906401000000008111156101a857600080fd5b8201836020820111156101ba57600080fd5b803590602001918460018302840111640100000000831117156101dc57600080fd5b91908080601f016020809104026020016040519081016040528093929190818152602001838380828437600081840152601f19601f820116905080830192505050505050509192919290505050610921565b005b61025c6004803603602081101561024657600080fd5b8101908080359060200190929190505050610b9d565b005b34801561026a57600080fd5b506103bb6004803603604081101561028157600080fd5b810190808035906020019064010000000081111561029e57600080fd5b8201836020820111156102b057600080fd5b803590602001918460018302840111640100000000831117156102d257600080fd5b91908080601f016020809104026020016040519081016040528093929190818152602001838380828437600081840152601f19601f8201169050808301925050505050505091929192908035906020019064010000000081111561033557600080fd5b82018360208201111561034757600080fd5b8035906020019184600183028401116401000000008311171561036957600080fd5b91908080601f016020809104026020016040519081016040528093929190818152602001838380828437600081840152601f19601f820116905080830192505050505050509192919290505050610da8565b604051808215151515815260200191505060405180910390f35b3480156103e157600080fd5b5061040e600480360360208110156103f857600080fd5b8101908080359060200190929190505050610e75565b6040518080602001828103825283818151815260200191508051906020019080838360005b8381101561044e578082015181840152602081019050610433565b50505050905090810190601f16801561047b5780820380516001836020036101000a031916815260200191505b509250505060405180910390f35b34801561049557600080fd5b5061049e610fc5565b005b3480156104ac57600080fd5b506104d9600480360360208110156104c357600080fd5b81019080803590602001909291905050506110aa565b6040518082815260200191505060405180910390f35b3480156104fb57600080fd5b506105286004803603602081101561051257600080fd5b81019080803590602001909291905050506110ca565b604051808215151515815260200191505060405180910390f35b61054a61124c565b005b34801561055857600080fd5b506106b36004803603606081101561056f57600080fd5b81019080803590602001909291908035906020019064010000000081111561059657600080fd5b8201836020820111156105a857600080fd5b803590602001918460018302840111640100000000831117156105ca57600080fd5b91908080601f016020809104026020016040519081016040528093929190818152602001838380828437600081840152601f19601f8201169050808301925050505050505091929192908035906020019064010000000081111561062d57600080fd5b82018360208201111561063f57600080fd5b8035906020019184600183028401116401000000008311171561066157600080fd5b91908080601f016020809104026020016040519081016040528093929190818152602001838380828437600081840152601f19601f8201169050808301925050505050505091929192905050506117cd565b005b3480156106c157600080fd5b506106ca611db0565b6040518082815260200191505060405180910390f35b3480156106ec57600080fd5b5061083d6004803603604081101561070357600080fd5b810190808035906020019064010000000081111561072057600080fd5b82018360208201111561073257600080fd5b8035906020019184600183028401116401000000008311171561075457600080fd5b91908080601f016020809104026020016040519081016040528093929190818152602001838380828437600081840152601f19601f820116905080830192505050505050509192919290803590602001906401000000008111156107b757600080fd5b8201836020820111156107c957600080fd5b803590602001918460018302840111640100000000831117156107eb57600080fd5b91908080601f016020809104026020016040519081016040528093929190818152602001838380828437600081840152601f19601f820116905080830192505050505050509192919290505050611dba565b6040518082815260200191505060405180910390f35b34801561085f57600080fd5b5061088c6004803603602081101561087657600080fd5b8101908080359060200190929190505050612157565b604051808215151515815260200191505060405180910390f35b3480156108b257600080fd5b506108df600480360360208110156108c957600080fd5b8101908080359060200190929190505050612183565b604051808273ffffffffffffffffffffffffffffffffffffffff1673ffffffffffffffffffffffffffffffffffffffff16815260200191505060405180910390f35b826000809054906101000a900473ffffffffffffffffffffffffffffffffffffffff1673ffffffffffffffffffffffffffffffffffffffff163373ffffffffffffffffffffffffffffffffffffffff1614801561097e5750600181145b806109e25750600160009054906101000a900473ffffffffffffffffffffffffffffffffffffffff1673ffffffffffffffffffffffffffffffffffffffff163373ffffffffffffffffffffffffffffffffffffffff161480156109e15750600281145b5b6109eb57600080fd5b6000809054906101000a900473ffffffffffffffffffffffffffffffffffffffff1673ffffffffffffffffffffffffffffffffffffffff163373ffffffffffffffffffffffffffffffffffffffff161480610a935750600160009054906101000a900473ffffffffffffffffffffffffffffffffffffffff1673ffffffffffffffffffffffffffffffffffffffff163373ffffffffffffffffffffffffffffffffffffffff16145b610a9c57600080fd5b6000809054906101000a900473ffffffffffffffffffffffffffffffffffffffff1673ffffffffffffffffffffffffffffffffffffffff163373ffffffffffffffffffffffffffffffffffffffff16148015610afc57506000801b600254145b15610b195781805190602001208380519060200120186002819055505b600160009054906101000a900473ffffffffffffffffffffffffffffffffffffffff1673ffffffffffffffffffffffffffffffffffffffff163373ffffffffffffffffffffffffffffffffffffffff16148015610b7a57506000801b600354145b15610b975781805190602001208380519060200120186003819055505b50505050565b6000809054906101000a900473ffffffffffffffffffffffffffffffffffffffff1673ffffffffffffffffffffffffffffffffffffffff163373ffffffffffffffffffffffffffffffffffffffff1614158015610c485750600160009054906101000a900473ffffffffffffffffffffffffffffffffffffffff1673ffffffffffffffffffffffffffffffffffffffff163373ffffffffffffffffffffffffffffffffffffffff1614155b610c5157600080fd5b674563918244f40000341015610c6657600080fd5b6001811415610d0b57600073ffffffffffffffffffffffffffffffffffffffff166000809054906101000a900473ffffffffffffffffffffffffffffffffffffffff1673ffffffffffffffffffffffffffffffffffffffff161415610d0657336000806101000a81548173ffffffffffffffffffffffffffffffffffffffff021916908373ffffffffffffffffffffffffffffffffffffffff1602179055505b610da5565b600073ffffffffffffffffffffffffffffffffffffffff16600160009054906101000a900473ffffffffffffffffffffffffffffffffffffffff1673ffffffffffffffffffffffffffffffffffffffff161415610da45733600160006101000a81548173ffffffffffffffffffffffffffffffffffffffff021916908373ffffffffffffffffffffffffffffffffffffffff1602179055505b5b50565b6000606083905060608390508051825114610dc857600092505050610e6f565b60008090505b8251811015610e6757818181518110610de357fe5b602001015160f81c60f81b7effffffffffffffffffffffffffffffffffffffffffffffffffffffffffffff1916838281518110610e1c57fe5b602001015160f81c60f81b7effffffffffffffffffffffffffffffffffffffffffffffffffffffffffffff191614610e5a5760009350505050610e6f565b8080600101915050610dce565b506001925050505b92915050565b60606001821415610f225760048054600181600116156101000203166002900480601f016020809104026020016040519081016040528092919081815260200182805460018160011615610100020316600290048015610f165780601f10610eeb57610100808354040283529160200191610f16565b820191906000526020600020905b815481529060010190602001808311610ef957829003601f168201915b50505050509050610fc0565b60058054600181600116156101000203166002900480601f016020809104026020016040519081016040528092919081815260200182805460018160011615610100020316600290048015610fb85780601f10610f8d57610100808354040283529160200191610fb8565b820191906000526020600020905b815481529060010190602001808311610f9b57829003601f168201915b505050505090505b919050565b6040518060200160405280600081525060049080519060200190610fea9291906121e2565b5060405180602001604052806000815250600590805190602001906110109291906121e2565b5060008060006101000a81548173ffffffffffffffffffffffffffffffffffffffff021916908373ffffffffffffffffffffffffffffffffffffffff1602179055506000600160006101000a81548173ffffffffffffffffffffffffffffffffffffffff021916908373ffffffffffffffffffffffffffffffffffffffff1602179055506000801b6002819055506000801b600381905550565b600060018214156110bf5760025490506110c5565b60035490505b919050565b600060018214156111905761118860048054600181600116156101000203166002900480601f01602080910402602001604051908101604052809291908181526020018280546001816001161561010002031660029004801561116e5780601f106111435761010080835404028352916020019161116e565b820191906000526020600020905b81548152906001019060200180831161115157829003601f168201915b505050505060405180602001604052806000815250610da8565b159050611247565b61124360058054600181600116156101000203166002900480601f0160208091040260200160405190810160405280929190818152602001828054600181600116156101000203166002900480156112295780601f106111fe57610100808354040283529160200191611229565b820191906000526020600020905b81548152906001019060200180831161120c57829003601f168201915b505050505060405180602001604052806000815250610da8565b1590505b919050565b6000801b6002541415801561126657506000801b60035414155b61126f57600080fd5b61132260048054600181600116156101000203166002900480601f0160208091040260200160405190810160405280929190818152602001828054600181600116156101000203166002900480156113085780601f106112dd57610100808354040283529160200191611308565b820191906000526020600020905b8154815290600101906020018083116112eb57829003601f168201915b505050505060405180602001604052806000815250610da8565b1580156113df57506113dd60058054600181600116156101000203166002900480601f0160208091040260200160405190810160405280929190818152602001828054600181600116156101000203166002900480156113c35780601f10611398576101008083540402835291602001916113c3565b820191906000526020600020905b8154815290600101906020018083116113a657829003601f168201915b505050505060405180602001604052806000815250610da8565b155b6113e857600080fd5b6000809054906101000a900473ffffffffffffffffffffffffffffffffffffffff1673ffffffffffffffffffffffffffffffffffffffff163373ffffffffffffffffffffffffffffffffffffffff1614806114905750600160009054906101000a900473ffffffffffffffffffffffffffffffffffffffff1673ffffffffffffffffffffffffffffffffffffffff163373ffffffffffffffffffffffffffffffffffffffff16145b61149957600080fd5b60006115d960048054600181600116156101000203166002900480601f0160208091040260200160405190810160405280929190818152602001828054600181600116156101000203166002900480156115345780601f1061150957610100808354040283529160200191611534565b820191906000526020600020905b81548152906001019060200180831161151757829003601f168201915b505050505060058054600181600116156101000203166002900480601f0160208091040260200160405190810160405280929190818152602001828054600181600116156101000203166002900480156115cf5780601f106115a4576101008083540402835291602001916115cf565b820191906000526020600020905b8154815290600101906020018083116115b257829003601f168201915b5050505050611dba565b90506001811415611659576000809054906101000a900473ffffffffffffffffffffffffffffffffffffffff1673ffffffffffffffffffffffffffffffffffffffff166108fc678ac7230489e800009081150290604051600060405180830381858888f19350505050158015611653573d6000803e3d6000fd5b506117bb565b60028114156116d857600160009054906101000a900473ffffffffffffffffffffffffffffffffffffffff1673ffffffffffffffffffffffffffffffffffffffff166108fc678ac7230489e800009081150290604051600060405180830381858888f193505050501580156116d2573d6000803e3d6000fd5b506117ba565b6000809054906101000a900473ffffffffffffffffffffffffffffffffffffffff1673ffffffffffffffffffffffffffffffffffffffff166108fc674563918244f400009081150290604051600060405180830381858888f19350505050158015611747573d6000803e3d6000fd5b50600160009054906101000a900473ffffffffffffffffffffffffffffffffffffffff1673ffffffffffffffffffffffffffffffffffffffff166108fc674563918244f400009081150290604051600060405180830381858888f193505050501580156117b8573d6000803e3d6000fd5b505b5b806006819055506117ca610fc5565b50565b6000809054906101000a900473ffffffffffffffffffffffffffffffffffffffff1673ffffffffffffffffffffffffffffffffffffffff163373ffffffffffffffffffffffffffffffffffffffff1614806118755750600160009054906101000a900473ffffffffffffffffffffffffffffffffffffffff1673ffffffffffffffffffffffffffffffffffffffff163373ffffffffffffffffffffffffffffffffffffffff16145b61187e57600080fd5b6000801b6002541415801561189857506000801b60035414155b6118a157600080fd5b826000809054906101000a900473ffffffffffffffffffffffffffffffffffffffff1673ffffffffffffffffffffffffffffffffffffffff163373ffffffffffffffffffffffffffffffffffffffff161480156118fe5750600181145b806119625750600160009054906101000a900473ffffffffffffffffffffffffffffffffffffffff1673ffffffffffffffffffffffffffffffffffffffff163373ffffffffffffffffffffffffffffffffffffffff161480156119615750600281145b5b61196b57600080fd5b6000828051906020012084805190602001201890506000809054906101000a900473ffffffffffffffffffffffffffffffffffffffff1673ffffffffffffffffffffffffffffffffffffffff163373ffffffffffffffffffffffffffffffffffffffff161415611b9457600254811415611b9357611a1e846040518060400160405280600481526020017f526f636b00000000000000000000000000000000000000000000000000000000815250610da8565b15611a70576040518060400160405280600481526020017f526f636b0000000000000000000000000000000000000000000000000000000081525060049080519060200190611a6e9291906121e2565b505b611aaf846040518060400160405280600581526020017f5061706572000000000000000000000000000000000000000000000000000000815250610da8565b15611b01576040518060400160405280600581526020017f506170657200000000000000000000000000000000000000000000000000000081525060049080519060200190611aff9291906121e2565b505b611b40846040518060400160405280600881526020017f53636973736f7273000000000000000000000000000000000000000000000000815250610da8565b15611b92576040518060400160405280600881526020017f53636973736f727300000000000000000000000000000000000000000000000081525060049080519060200190611b909291906121e2565b505b5b5b600160009054906101000a900473ffffffffffffffffffffffffffffffffffffffff1673ffffffffffffffffffffffffffffffffffffffff163373ffffffffffffffffffffffffffffffffffffffff161415611da957600354811415611da857611c33846040518060400160405280600481526020017f526f636b00000000000000000000000000000000000000000000000000000000815250610da8565b15611c85576040518060400160405280600481526020017f526f636b0000000000000000000000000000000000000000000000000000000081525060059080519060200190611c839291906121e2565b505b611cc4846040518060400160405280600581526020017f5061706572000000000000000000000000000000000000000000000000000000815250610da8565b15611d16576040518060400160405280600581526020017f506170657200000000000000000000000000000000000000000000000000000081525060059080519060200190611d149291906121e2565b505b611d55846040518060400160405280600881526020017f53636973736f7273000000000000000000000000000000000000000000000000815250610da8565b15611da7576040518060400160405280600881526020017f53636973736f727300000000000000000000000000000000000000000000000081525060059080519060200190611da59291906121e2565b505b5b5b5050505050565b6000600654905090565b6000611dc68383610da8565b15611dd45760009050612151565b611e13836040518060400160405280600481526020017f526f636b00000000000000000000000000000000000000000000000000000000815250610da8565b8015611e5a5750611e59826040518060400160405280600881526020017f53636973736f7273000000000000000000000000000000000000000000000000815250610da8565b5b15611e685760019050612151565b611ea7836040518060400160405280600481526020017f526f636b00000000000000000000000000000000000000000000000000000000815250610da8565b8015611eee5750611eed826040518060400160405280600581526020017f5061706572000000000000000000000000000000000000000000000000000000815250610da8565b5b15611efc5760029050612151565b611f3b836040518060400160405280600581526020017f5061706572000000000000000000000000000000000000000000000000000000815250610da8565b8015611f825750611f81826040518060400160405280600481526020017f526f636b00000000000000000000000000000000000000000000000000000000815250610da8565b5b15611f905760019050612151565b611fcf836040518060400160405280600581526020017f5061706572000000000000000000000000000000000000000000000000000000815250610da8565b80156120165750612015826040518060400160405280600881526020017f53636973736f7273000000000000000000000000000000000000000000000000815250610da8565b5b156120245760029050612151565b612063836040518060400160405280600881526020017f53636973736f7273000000000000000000000000000000000000000000000000815250610da8565b80156120aa57506120a9826040518060400160405280600481526020017f526f636b00000000000000000000000000000000000000000000000000000000815250610da8565b5b156120b85760029050612151565b6120f7836040518060400160405280600881526020017f53636973736f7273000000000000000000000000000000000000000000000000815250610da8565b801561213e575061213d826040518060400160405280600581526020017f5061706572000000000000000000000000000000000000000000000000000000815250610da8565b5b1561214c5760019050612151565b600090505b92915050565b60006001821415612172576000801b6002541415905061217e565b6000801b600354141590505b919050565b600060018214156121b7576000809054906101000a900473ffffffffffffffffffffffffffffffffffffffff1690506121dd565b600160009054906101000a900473ffffffffffffffffffffffffffffffffffffffff1690505b919050565b828054600181600116156101000203166002900490600052602060002090601f016020900481019282601f1061222357805160ff1916838001178555612251565b82800160010185558215612251579182015b82811115612250578251825591602001919060010190612235565b5b50905061225e9190612262565b5090565b61228491905b80821115612280576000816000905550600101612268565b5090565b9056fea265627a7a72315820006dd1eb1a96e75a9bce264918372bd0b3cde8b7ec6528cd23cf3bf81356f68964736f6c63430005100032",
  "source": "pragma solidity ^0.5.0;\r\n\r\n/**\r\n* @title RockPaperScissors\r\n* @author Noah-Vincenz Noeh <noah-vincenz.noeh18@imperial.ac.uk>\r\n* @notice This smart contract allows two players to play Rock Paper Scissors against each other and the winner gets some Ether as reward.\r\n*/\r\ncontract RockPaperScissors {\r\n  address payable player1;\r\n  address payable player2;\r\n  bytes32 hash1;\r\n  bytes32 hash2;\r\n  string revealedP1Shape;\r\n  string revealedP2Shape;\r\n  int lastWinner;\r\n\r\n  modifier notRegisteredYet() {\r\n    require(msg.sender != player1 && msg.sender != player2);\r\n    _;\r\n  }\r\n\r\n  modifier isRegistered() {\r\n    require(msg.sender == player1 || msg.sender == player2);\r\n    _;\r\n  }\r\n\r\n  modifier hasEnoughEther() {\r\n    require(msg.value >= 5 ether);\r\n    _;\r\n  }\r\n\r\n  modifier bothLocked(){\r\n    require(hash1 != bytes32(0) && hash2 != bytes32(0));\r\n    _;\r\n  }\r\n\r\n  modifier bothRevealed(){\r\n    require(!stringsEqual(revealedP1Shape, \"\") && !stringsEqual(revealedP2Shape, \"\"));\r\n    _;\r\n  }\r\n\r\n  // this is to make sure that a registered player cannot lock / reveal another player's shape\r\n  modifier correctPlayer(int playerNumber) {\r\n    require((msg.sender == player1 && playerNumber == 1) || (msg.sender == player2 && playerNumber == 2));\r\n    _;\r\n  }\r\n\r\n  /**\r\n  * @notice This function returns a boolean whether the corresponding player has locked their shape.\r\n  * @param playerNumber The player's number (either 1 or 2).\r\n  * @return true or false.\r\n  */\r\n  function hasLocked(int playerNumber) public view returns (bool) {\r\n    if (playerNumber == 1)\r\n      return (hash1 != bytes32(0));\r\n    else\r\n      return (hash2 != bytes32(0));\r\n  }\r\n\r\n  /**\r\n  * @notice This function returns a boolean whether the corresponding player has revealed their shape.\r\n  * @param playerNumber The player's number (either 1 or 2).\r\n  * @return true or false.\r\n  */\r\n  function hasRevealed(int playerNumber) public view returns (bool) {\r\n    if (playerNumber == 1)\r\n      return (!stringsEqual(revealedP1Shape, \"\"));\r\n    else\r\n      return (!stringsEqual(revealedP2Shape, \"\"));\r\n  }\r\n\r\n  /**\r\n  * @notice This function returns the corresponding player's address.\r\n  * @param playerNumber The player's number (either 1 or 2).\r\n  * @return The player's address.\r\n  */\r\n  function getAddress(int playerNumber) public view returns (address) {\r\n    if (playerNumber == 1)\r\n      return player1;\r\n    else\r\n      return player2;\r\n  }\r\n\r\n  /**\r\n  * @notice This function returns the corresponding player's revealed string.\r\n  * @param playerNumber The player's number (either 1 or 2).\r\n  * @return The player's revealed string - \"Rock\", \"Paper\" or \"Scissors\".\r\n  */\r\n  function getRevealed(int playerNumber) public view returns (string memory) {\r\n    if (playerNumber == 1)\r\n      return revealedP1Shape;\r\n    else\r\n      return revealedP2Shape;\r\n  }\r\n\r\n  /**\r\n  * @notice This function returns the corresponding player's hash.\r\n  * @param playerNumber The player's number (either 1 or 2).\r\n  * @return The player's hash.\r\n  */\r\n  function getHash(int playerNumber) public view returns (bytes32) {\r\n    if (playerNumber == 1)\r\n      return hash1;\r\n    else\r\n      return hash2;\r\n  }\r\n\r\n  /**\r\n  * @notice This function returns the winner of the last game.\r\n  * @return The player's numbe - either 1 or 2 (or 0 if it was a draw).\r\n  */\r\n  function getWinner() public view returns (int) {\r\n    return lastWinner;\r\n  }\r\n\r\n  /**\r\n  * @notice This function is called to reset the contract's variable states for a new game.\r\n  */\r\n  function resetVariables() public {\r\n    revealedP1Shape = \"\";\r\n    revealedP2Shape = \"\";\r\n    player1 = address(0);\r\n    player2 = address(0);\r\n\t\thash1 = bytes32(0);\r\n\t\thash2 = bytes32(0);\r\n  }\r\n\r\n  /**\r\n  * @notice This function registers a player address to the game.\r\n  * @param playerNumber The player's number (either 1 or 2).\r\n  */\r\n  function registerPlayer(int playerNumber) public payable notRegisteredYet hasEnoughEther {\r\n\r\n    if (playerNumber == 1) {\r\n      if (player1 == address(0)) {\r\n          player1 = msg.sender;\r\n        }\r\n    } else {\r\n      if (player2 == address(0)) {\r\n          player2 = msg.sender;\r\n      }\r\n    }\r\n  }\r\n\r\n  /**\r\n  * @notice This function locks a player's shape by creating a hash of the passed in shape and string XORed.\r\n  * @param playerNumber The player's number (either 1 or 2).\r\n  * @param shape The player's selected shape (\"Rock\", \"Paper\" or \"Scissors\").\r\n  * @param randomStringToHash The player's selected random string to hash the shape with.\r\n  */\r\n  function lockShape(int playerNumber, string memory shape, string memory randomStringToHash) public correctPlayer(playerNumber) isRegistered {\r\n    // if the player is locking his own shape AND if it is the player's address that calls this AND if the player's hash has not been set\r\n    if(msg.sender == player1 && hash1 == bytes32(0)) {\r\n      // XOR random string with shape\r\n      hash1 = keccak256(bytes(shape)) ^ keccak256(bytes(randomStringToHash));\r\n    }\r\n    if(msg.sender == player2 && hash2 == bytes32(0)) {\r\n      hash2 = keccak256(bytes(shape)) ^ keccak256(bytes(randomStringToHash));\r\n    }\r\n  }\r\n\r\n  /**\r\n  * @notice This function reveals a player's shape. This checks whether the stored hash equals the new given hash (consisting of the currently selected shape and string)\r\n  * @param playerNumber The player's number (either 1 or 2).\r\n  * @param shape The player's selected shape (\"Rock\", \"Paper\" or \"Scissors\").\r\n  * @param randomStringToHash The player's selected random string to hash the shape with.\r\n  */\r\n  function revealShape(int playerNumber, string memory shape, string memory randomStringToHash) public isRegistered bothLocked correctPlayer(playerNumber) {\r\n    bytes32 tempHash = keccak256(bytes(shape)) ^ keccak256(bytes(randomStringToHash));\r\n\r\n\t\tif(msg.sender == player1){\r\n\t\t\tif(tempHash == hash1){\r\n\t\t\t\tif(stringsEqual(shape, \"Rock\")) {\r\n\t\t\t\t\trevealedP1Shape = \"Rock\";\r\n\t\t\t\t}\r\n        if(stringsEqual(shape, \"Paper\")) {\r\n          revealedP1Shape = \"Paper\";\r\n\t\t\t\t}\r\n        if(stringsEqual(shape, \"Scissors\")) {\r\n          revealedP1Shape = \"Scissors\";\r\n\t\t\t\t}\r\n        // shape is going to be one of the above\r\n\t\t\t}\r\n\t\t}\r\n    if(msg.sender == player2){\r\n\t\t\tif(tempHash == hash2){\r\n\t\t\t\tif(stringsEqual(shape, \"Rock\")) {\r\n\t\t\t\t\trevealedP2Shape = \"Rock\";\r\n\t\t\t\t}\r\n        if(stringsEqual(shape, \"Paper\")) {\r\n          revealedP2Shape = \"Paper\";\r\n\t\t\t\t}\r\n        if(stringsEqual(shape, \"Scissors\")) {\r\n          revealedP2Shape = \"Scissors\";\r\n\t\t\t\t}\r\n\t\t\t}\r\n\t\t}\r\n\t}\r\n\r\n  /**\r\n  * @notice This function computes the winner shape from two shapes and returns 1 if player 1 wins, 2 if player 2 wins and 0 if it is a draw.\r\n  * @param revealedP1 Player 1's revealed shape.\r\n  * @param revealedP2 Player 2's revealed shape.\r\n  * @return 1, 2 or 0 depending on which player won the game (0 in the case of a draw).\r\n  */\r\n  function computeWinner(string memory revealedP1, string memory revealedP2) pure public returns (int) {\r\n\r\n    if (stringsEqual(revealedP1, revealedP2)) return 0;\r\n    else if (stringsEqual(revealedP1, \"Rock\") && stringsEqual(revealedP2, \"Scissors\")) return 1;\r\n    else if (stringsEqual(revealedP1, \"Rock\") && stringsEqual(revealedP2, \"Paper\")) return 2;\r\n    else if (stringsEqual(revealedP1, \"Paper\") && stringsEqual(revealedP2, \"Rock\")) return 1;\r\n    else if (stringsEqual(revealedP1, \"Paper\") && stringsEqual(revealedP2, \"Scissors\")) return 2;\r\n    else if (stringsEqual(revealedP1, \"Scissors\") && stringsEqual(revealedP2, \"Rock\")) return 2;\r\n    else if (stringsEqual(revealedP1, \"Scissors\") && stringsEqual(revealedP2, \"Paper\")) return 1;\r\n    else return 0;\r\n\r\n  }\r\n\r\n  /**\r\n  * @notice This function is called when both players have locked and revealed their shapes and the 'Distribute Rewards' button in the UI is pressed.\r\n  */\r\n  function distributeRewards() public payable bothLocked bothRevealed isRegistered {\r\n\r\n    int winner = computeWinner(revealedP1Shape, revealedP2Shape);\r\n\r\n    if (winner == 1) {\r\n\r\n      player1.transfer(10 ether);\r\n\r\n    } else if (winner == 2) {\r\n\r\n      player2.transfer(10 ether);\r\n\r\n    } else {\r\n      // in the case of a draw, send half money to both parties\r\n      player1.transfer(5 ether);\r\n\t\t\tplayer2.transfer(5 ether);\r\n\r\n    }\r\n    lastWinner = winner;\r\n    resetVariables();\r\n\r\n  }\r\n\r\n  /**\r\n  * @notice This function compares two strings (memory) and checks whether these are equal and returns the corresponding boolean.\r\n  * @param stringA First string to compare with.\r\n  * @param stringB Second string to compare with.\r\n  * @return true or false depending on whether the two strings are equal.\r\n  */\r\n  function stringsEqual(string memory stringA, string memory stringB) public pure returns (bool) {\r\n    bytes memory a = bytes(stringA);\r\n    bytes memory b = bytes(stringB);\r\n\r\n    if (a.length != b.length)\r\n        return false;\r\n\r\n    for (uint i = 0; i < a.length; i ++)\r\n        if (a[i] != b[i])\r\n            return false;\r\n        return true;\r\n  }\r\n\r\n}\r\n",
  "sourcePath": "E:/TRY/bc/rpc/rps-contract/contracts/RockPaperScissors.sol",
  "compiler": {
    "name": "solc",
    "version": "0.5.16+commit.9c3226ce.Emscripten.clang"
  },
  "schemaVersion": "3.4.1",
  "updatedAt": "2021-07-13T01:38:58.514Z",
  "devdoc": {
    "author": "Noah-Vincenz Noeh <noah-vincenz.noeh18@imperial.ac.uk>",
    "methods": {
      "computeWinner(string,string)": {
        "params": {
          "revealedP1": "Player 1's revealed shape.",
          "revealedP2": "Player 2's revealed shape."
        },
        "return": "1, 2 or 0 depending on which player won the game (0 in the case of a draw)."
      },
      "getAddress(int256)": {
        "params": {
          "playerNumber": "The player's number (either 1 or 2)."
        },
        "return": "The player's address."
      },
      "getHash(int256)": {
        "params": {
          "playerNumber": "The player's number (either 1 or 2)."
        },
        "return": "The player's hash."
      },
      "getRevealed(int256)": {
        "params": {
          "playerNumber": "The player's number (either 1 or 2)."
        },
        "return": "The player's revealed string - \"Rock\", \"Paper\" or \"Scissors\"."
      },
      "getWinner()": {
        "return": "The player's numbe - either 1 or 2 (or 0 if it was a draw)."
      },
      "hasLocked(int256)": {
        "params": {
          "playerNumber": "The player's number (either 1 or 2)."
        },
        "return": "true or false."
      },
      "hasRevealed(int256)": {
        "params": {
          "playerNumber": "The player's number (either 1 or 2)."
        },
        "return": "true or false."
      },
      "lockShape(int256,string,string)": {
        "params": {
          "playerNumber": "The player's number (either 1 or 2).",
          "randomStringToHash": "The player's selected random string to hash the shape with.",
          "shape": "The player's selected shape (\"Rock\", \"Paper\" or \"Scissors\")."
        }
      },
      "registerPlayer(int256)": {
        "params": {
          "playerNumber": "The player's number (either 1 or 2)."
        }
      },
      "revealShape(int256,string,string)": {
        "params": {
          "playerNumber": "The player's number (either 1 or 2).",
          "randomStringToHash": "The player's selected random string to hash the shape with.",
          "shape": "The player's selected shape (\"Rock\", \"Paper\" or \"Scissors\")."
        }
      },
      "stringsEqual(string,string)": {
        "params": {
          "stringA": "First string to compare with.",
          "stringB": "Second string to compare with."
        },
        "return": "true or false depending on whether the two strings are equal."
      }
    },
    "title": "RockPaperScissors"
  },
  "userdoc": {
    "methods": {
      "computeWinner(string,string)": {
        "notice": "This function computes the winner shape from two shapes and returns 1 if player 1 wins, 2 if player 2 wins and 0 if it is a draw."
      },
      "distributeRewards()": {
        "notice": "This function is called when both players have locked and revealed their shapes and the 'Distribute Rewards' button in the UI is pressed."
      },
      "getAddress(int256)": {
        "notice": "This function returns the corresponding player's address."
      },
      "getHash(int256)": {
        "notice": "This function returns the corresponding player's hash."
      },
      "getRevealed(int256)": {
        "notice": "This function returns the corresponding player's revealed string."
      },
      "getWinner()": {
        "notice": "This function returns the winner of the last game."
      },
      "hasLocked(int256)": {
        "notice": "This function returns a boolean whether the corresponding player has locked their shape."
      },
      "hasRevealed(int256)": {
        "notice": "This function returns a boolean whether the corresponding player has revealed their shape."
      },
      "lockShape(int256,string,string)": {
        "notice": "This function locks a player's shape by creating a hash of the passed in shape and string XORed."
      },
      "registerPlayer(int256)": {
        "notice": "This function registers a player address to the game."
      },
      "resetVariables()": {
        "notice": "This function is called to reset the contract's variable states for a new game."
      },
      "revealShape(int256,string,string)": {
        "notice": "This function reveals a player's shape. This checks whether the stored hash equals the new given hash (consisting of the currently selected shape and string)"
      },
      "stringsEqual(string,string)": {
        "notice": "This function compares two strings (memory) and checks whether these are equal and returns the corresponding boolean."
      }
    },
    "notice": "This smart contract allows two players to play Rock Paper Scissors against each other and the winner gets some Ether as reward."
  }
}